:1000000007308A00982F0000FF00030E8301A10033
:100010000A08A0008A010408A2007708A300780853
:10002000A4007908A5007A08A60003170D08031399
:10003000A70003170F080313A80003170C080313E6
:10004000A90003170E080313AA00831383128B1D44
:100050002B280B184C28220884002308F7002408BA
:10006000F8002508F9002608FA00270803178D0074
:100070000313280803178F000313290803178C00A4
:1000800003132A0803178E00031320088A00210E89
:100090008300FF0E7F0E09008A110A124F28FF30DD
:1000A0008316860083120608703A03196128C03A45
:1000B00003196C28603A03197728303A03197F280E
:1000C0008528AC08031D6B282B08013C03186B28FE
:1000D000AB030130AD008528AC08031D76282B0842
:1000E000023C031C7628AB0A0130AD008528AC0821
:1000F000031D7E282B08AC000130AD008528AC081C
:1001000003198528AC010130AD000B108A110A12C9
:100110002B288C267536F434ED3274396F10C434C4
:1001200067170000C528201B2C10473975386F1041
:1001300036000C266F38653DA0216139F230F3316D
:100140006F00CB30723661000C29E53CE539202B7D
:100150006136E4327239E1366100D2376439E9330D
:100160006F10CD34E73A653600000C15202AE536CD
:10017000F032F230F43AF2300001202B6F36F434D2
:10018000ED3274396F000C15202B6F36F434ED32DC
:1001900074396F00A0206D386539E936653AF23759
:1001A00000010C10D6376C3AE936653AF237000197
:1001B0002A10C136F032F234ED3274396F000C106F
:1001C000D4326D386539613A7539611D20000C10E3
:1001D000D6376C3A6135651D2000A01232173233D4
:1001E000A02DD62E00000C10C3377239E9326E3ABA
:1001F000651D2000A01232173233A02DED205D00C6
:1002000083161F149F101F119F151F1383121F1792
:100210009F1783169F1783121F148316860183125C
:100220008601F0308316860083128B15C0308B0454
:100230008A110A12B32F4B3084008313000803196C
:100240002E290630F800F701F70B2429F80B232993
:100250007B30F700F70B2A29800B21290800521860
:100260003329881234298816831688128312D218EB
:100270003B2908123C2908168316081283125219CA
:100280004329881144298815831688118312D219AD
:100290004B2908114C2908158316081100008312F8
:1002A0000817831608130330F700F70B552983123C
:1002B00008138316081383120800D30183168816C7
:1002C00000308312881A0130D304831608160030D8
:1002D0008312081A0130F7000310F70D7708D304D2
:1002E000831688150030831288190130F700F70D46
:1002F000F70DFC30F7057708D30483160815003096
:10030000831208190130F700F70DF70DF70DF830DB
:10031000F7057708D3045308F8000800831608137C
:1003200088130810831288138316881388160816FA
:10033000881508158312081483160810000083120C
:10034000081783160813000083125D217808D20075
:100350000813831608130000831208178316081366
:10036000B129B229000083125D217808D100081359
:100370008316081388120812881108118312520E6E
:10038000F700F030F70577085104F8007808D1003D
:10039000D11FCC2983169629CF08031DD129881394
:1003A000D229881783168813000083120810831639
:1003B0000810000083120813831608138312500ECE
:1003C000D1000F30D1055108D2002F2150080F392C
:1003D000D100D2002F2108004C0BEF29F229403028
:1003E000CD00F329CD0101304B02CD074D088038F7
:1003F000CE00CF014E08D0008E2108004A08073AEF
:1004000003190C2A0B3A0319112A063A0319192A5F
:10041000023A03191F2A242A0130CB00CC00EC2118
:10042000292ACF010130D0008E210230CB001B21C0
:10043000292A0130CB000230CC00EC21292ACF013F
:100440001030D0008E21292A0130CF004A08D00078
:100450008E2108000B08BD008B13831603178C1721
:100460000C140000000083120313BD1B8B1703172D
:100470000C087F3903197E2A0313BD0003170D08EA
:100480000313BE0003170F080313BF003D08CA0083
:10049000FE213E0803178D0003133F0803178F004A
:1004A00003130B08C0008B13831603178C170C144F
:1004B0000000000083120313C01B8B1703170C0DE1
:1004C0000E0D7F3903197E2A0313BD0003170D0893
:1004D0000313BE0003170F080313BF003D08CA0033
:1004E000FE213E0803178D0003133F0803178F00FA
:1004F0008D0A03198F0A03132A2A0317031308000E
:100500002830B1000C30B2000130B3000630B40026
:100510000813831608138312881383168813831213
:100520000810831608108812081288110811081381
:10053000881308100F308312CB001B210130B0004C
:100540003008033C031CAC2A0330D2002F210530B5
:10055000CB001B21B00AA02A0230D2002F21053087
:10056000CB001B21B0013008033C031CC32A3130EF
:100570003007840083130008B500CF013508D00090
:100580008E21B00AB32A0130CB00CC00EC21893097
:1005900003178D0000308F0003132A220130CB0097
:1005A0000230CC00EC21923003178D0000308F0018
:1005B00003132A226430CB001B210130CB00CC0076
:1005C000EC21993003178D0000308F0003132A228D
:1005D0000130CB000230CC00EC21A13003178D009C
:1005E00000308F0003132A226430CB001B2101301E
:1005F000CB00CC00EC21A43003178D0000308F001D
:1006000003132A220130CB000230CC00EC21AD30A4
:1006100003178D0000308F0003132A226430CB00B3
:100620001B218A110A12B42F2B08013A03191F2B20
:10063000033A0319332B013A0319472B5A2BB530D0
:1006400003178D0000308F0003132A220130CB00E6
:100650000230CC00EC21BD3003178D0000308F003C
:1006600003132A225A2BC33003178D0000308F004A
:1006700003132A220130CB000230CC00EC21CA3017
:1006800003178D0000308F0003132A225A2BD1301C
:1006900003178D0000308F0003132A220130CB0096
:1006A0000230CC00EC21D83003178D0000308F00D1
:1006B00003132A22AD0803195A2B8A110A12C22FDA
:1006C0008E30F7003E08F8003D08F900FA01F808FE
:1006D000031D742B7908F800F9010830F702F808B7
:1006E000031D742BF7017C2B0310F81B7B2BF90DDA
:1006F000F80DF703742BF81308004A080319ED2BC3
:10070000D2004E080319ED2BD20703188E2B7F3031
:10071000D202031CED2B0319ED2B922B8130D20753
:100720000318ED2B5208F700F801F901FA014B0804
:10073000D600D6174C08D5004D08D4001830D2008A
:10074000D301541CBB2B5108FA07031CAD2BF90A2B
:10075000031DAD2BF80A0319D3175008F907031C22
:10076000B42BF80A0319D3174F08CC00CC174C0848
:10077000F8070318D317D30DF80CF90CFA0CD60CA4
:10078000D50CD40C0310D20BA02B0130F7070318A3
:10079000ED2BF81BD22BD60DFA0DF90DF80DF70342
:1007A0000319ED2BD61FE32BFA0A031DE32BF90ADD
:1007B000031DE32BF80A031DE32BF80CF90CFA0CCC
:1007C000F70A0319ED2B4B08D3004F08D306D31FAC
:1007D000EB2BF817F12BF813F12BF701F801F901C6
:1007E000FA0108008318F72B523084008313F701B5
:1007F000F801F901FA01D201D301D401D501510860
:1008000050044F044E040319352C2030D600031039
:10081000CA0DCB0DCC0DCD0DD20DD30DD40DD50DF4
:1008200051085502031D1E2C50085402031D1E2C96
:100830004F085302031D1E2C4E085202031C2F2C7E
:100840004E08D2024F08031C4F0FD3025008031C5E
:10085000500FD4025108031C510FD5020314F70D99
:10086000F80DF90DFA0DD60B072C52088000840AFA
:1008700053088000840A54088000840A55088000C8
:1008800008000408C2004108C4000319602C400895
:10089000CD003F08CC003E08CB003D08CA00D10186
:1008A000D0012030CF008230CE007D237A08C000F6
:1008B0007908BF007808BE007708BD00C40B472C3C
:1008C0004008CD003F08CC003E08CB003D08CA00E0
:1008D0004A08B63CCA00FA014B08CE00CB170310F9
:1008E000CB0CCC0CCD0CFA0CF90CF80CF70CCA0B99
:1008F0006F2CCE1F862CF709F809F909FA09F70AB7
:100900000319F80A0319F90A0319FA0A7A08C00048
:100910007908BF007808BE007708BD00C01F9D2C75
:10092000C203C216BD09BE09BF09C009BD0A031929
:10093000BE0A0319BF0A0319C00A3B30C9009A3026
:10094000C800CA30C700C6010A30C40041080319F4
:10095000C20A83143D30840083134008CD003F0851
:10096000CC003E08CB003D08CA004908D100480829
:10097000D0004708CF004608CE00F2237808F708D9
:10098000031DD52C410A44020319D52C4208031932
:10099000D72C0F3944020319CF2C0318072DC21B83
:1009A000072D421BD72C2030032D2030C205C21E3C
:1009B000E52CC2124108031DC2037708C2002D3086
:1009C000CA00FE214208F700C20141084402031D8B
:1009D000F32C7708C2002E30CA00FE214208F7002F
:1009E0002030C20500303030C21E032DC212410833
:1009F000031DC2037708C2002D30CA00FE21420841
:100A0000F700C2013030F7077708CA00FE218310D3
:100A10004908CD004808CC004708CB004608CA006A
:100A2000D101D001CF010A30CE00F2237A08C900EB
:100A30007908C8007808C7007708C600C40BA92C3D
:100A40000800DF30B5000030F8001F08C73978040F
:100A50009F004230F700F70B2B2D0000DF3003170B
:100A60008D0000308F0003132A22AD08031D812D55
:100A70001F151F19392D83161E088312B000BE01E1
:100A80003008BD0060237A08CD007908CC007808D2
:100A9000CB007708CA00C730D1004B30D000773088
:100AA000CF007D30CE007D237A08B4007908B300F2
:100AB0007808B2007708B1000130CB000230CC00DA
:100AC000EC212030CA00FE21013084003408C0002F
:100AD0003308BF003208BE003108BD000130C1003C
:100AE00041242030CA00FE213508CA00FE212030F2
:100AF000CA00FE214330CA00FE211430CB001B2166
:100B0000352D8A110A12C22F0B08BE008B138316D3
:100B100003178C170C140000000083120313BE1B74
:100B20008B170318BB2D03170C087F390313BE0066
:100B300003170D080313BF0003170F080313C000AA
:100B40003E08CA00FE213F0803178D00031340082A
:100B500003178F0003130B08C1008B1383160317B1
:100B60008C170C140000000083120313C11B8B1799
:100B7000BD0BBB2DDA2D03170C0D0E0D7F390313A2
:100B8000BE0003170D080313BF0003170F0803135C
:100B9000C0003E08CA00FE213F0803178D00031362
:100BA000400803178F008D0A03198F0A03100313DF
:100BB000BD0B842D08000830F8001F08C7397804E1
:100BC0009F004230F700F70BE32D0000E7300317DA
:100BD0008D0000308F0003132A22AD08031D422E22
:100BE0001F151F19F12D1E08F90083161E08F800A5
:100BF0007908FA001E088312BD007908BE00602340
:100C00007A08B7007908B6007808B5007708B4000C
:100C10007A08CD007908CC007808CB007708CA00A4
:100C2000D101D0012430CF007930CE007D237A0865
:100C3000B3007908B2007808B1007708B00001303D
:100C4000CB000230CC00EC212030CA00FE218930DC
:100C500084003308C0003208BF003108BE003008ED
:100C6000BD000230C1004124F03003178D00003078
:100C70008F00031004300313BD0084251430CB0013
:100C80001B21ED2D8A110A12C22FCD30BB00CC30B2
:100C9000BA004C30B9007B30B8001030F8001F08A3
:100CA000C73978049F004230F700F70B552E00003B
:100CB000F33003178D0000308F0003132A22AD0894
:100CC000031D952F1F151F19632E1E08F90083168B
:100CD0001E08F8007908FA001E088312BD00790882
:100CE000BE0060237A08B3007908B2007808B1002A
:100CF0007708B0003308CD003208CC003108CB00B3
:100D00003008CA00D1014030D0001C30CF008B30F9
:100D1000CE007D237A08C0007908BF007808BE00A5
:100D20007708BD004008C4003F08C3003E08C20069
:100D30003D08C100C801C030C7007F30C600883000
:100D4000C50041080319662FCD0045080319662F19
:100D5000CD02031CB02E7F30CD070318662FB62EB0
:100D60008130CD02031C662F0319662F4D08F70052
:100D7000F801F901FA01CC014208CB00CB17430876
:100D8000CA004408C9001930CD004808C902031838
:100D9000D92E0130CA020318D92ECB020318D92E3E
:100DA000CC020318D92ECC0ACB0ACA0A4808C907B4
:100DB0000B2F4708CA020318F42E0130CB02031888
:100DC000F42ECC020318F42ECC0ACB0A4708CA072B
:100DD0004808C907031C0B2FCA0A031D0B2FCB0A97
:100DE000031D0B2FCC0A0B2F46088038CB020318AB
:100DF0000A2F0130CC0203180A2FCC0A460880388B
:100E0000CB074708CA07031CE82ECB0A031DE82EB0
:100E1000CC0AE82E7A14CD0B0E2F192F0310C90D12
:100E2000CA0DCB0DCC0D0310FA0DF90DF80DCE0D3A
:100E3000C52E4E1C212F0310F80CF90CFA0CCE0C09
:100E4000242FF7030319662FCE1B4D2F0310C90D56
:100E5000CA0DCB0DCC0D4808C9020318392F01303B
:100E6000CA020318392FCB020318392FCC02031CF6
:100E70005C2F4708CA020318442F0130CB02031825
:100E8000442FCC02031C5C2F46088038CB02031889
:100E90004D2F0130CC02031C5C2FFA0A031D5C2F7E
:100EA000F90A031D5C2FF80A031D5C2FF70A0319CA
:100EB000662FF80CF90CFA0C4208CD004608CD0656
:100EC000CD1F642FF8176A2FF8136A2FF701F80166
:100ED000F901FA017A08B7007908B6007808B50078
:100EE0007708B4000130CB000230CC00EC21203078
:100EF000CA00FE21893084003708C0003608BF00D0
:100F00003508BE003408BD000230C1004124FD3068
:100F100003178D0000308F00031005300313BD0050
:100F200084251430CB001B215F2E8A110A12C22F98
:100F300003081F398300813083169900A63098007A
:100F40009030831298000130AB00AC01AD01AF01CD
:100F5000AE0183161F149F141F159F1107309C00AC
:100F6000831383120029802AAD012C08FC3E03184C
:100F7000C22F043EC42F142BC22F212DC22FDB2DD4
:100F8000C22F452EB42F63000A148A140A15820753
:080F9000BB2FBD2FBF2FC12FA5
:02400E00723FFF
:00000001FF
;PIC16F877A
;CRC=4BF3  CREATED="13-nov.-24 17:31"
