:1000000007308A00BC2F0000FF00030E8301A1000F
:100010000A08A0008A010408A2007708A300780853
:10002000A4007908A5007A08A60003170D08031399
:10003000A70003170F080313A80003170C080313E6
:10004000A90003170E080313AA00831383128B1D44
:100050002B280B184C28220884002308F7002408BA
:10006000F8002508F9002608FA00270803178D0074
:100070000313280803178F000313290803178C00A4
:1000800003132A0803178E00031320088A00210E89
:100090008300FF0E7F0E09008A110A124F28FF30DD
:1000A0008316860083120608703A03196128C03A45
:1000B00003196C28603A03197728303A03197F280E
:1000C0008528AC08031D6B282B08013C03186B28FE
:1000D000AB030130AD008528AC08031D76282B0842
:1000E000023C031C7628AB0A0130AD008528AC0821
:1000F000031D7E282B08AC000130AD008528AC081C
:1001000003198528AC010130AD000B108A110A12C9
:100110002B288C267536F434ED3274396F10C434C4
:1001200067170000C528201B2C10473975386F1041
:1001300036000C266F38653DA0216139F230F3316D
:100140006F00CB30723661000C29E53CE539202B7D
:100150006136E4327239E1366100D2376439E9330D
:100160006F10CD34E73A653600008C163E1F202B09
:100170006F36F434ED3274396F00A0206D38653974
:10018000E936653AF23700018C163E1FA0206D3823
:100190006539E936653AF2370001202AE536F03252
:1001A000F230F43AF23000010C10C136F032F23481
:1001B000ED3274396F002D1F3E10D4326D38653921
:1001C000613A753961000C10D4326D386539613A85
:1001D0007539611D20000C10D6376C3A6135651DEC
:1001E0002000A01232173233A02DD62E00000C10A2
:1001F000C3377239E9326E3A651D2000A0123217FA
:100200003233A02DC12E000083161F149F101F1122
:100210009F151F1383121F179F1783169F17831293
:100220001F148316860183128601F0308316860020
:1002300083128B15C0308B048A110A12D72F4B30D2
:10024000840083130008031932290630F800F701EF
:10025000F70B2829F80B27297B30F700F70B2E29FD
:10026000800B25290800521837298812382988164A
:10027000831688128312D2183F29081240290816C3
:1002800083160812831252194729881148298815A4
:10029000831688118312D2194F2908115029081585
:1002A0008316081100008312081783160813033001
:1002B000F700F70B592983120813831608138312CA
:1002C0000800D3018316881600308312881A013083
:1002D000D3048316081600308312081A0130F70081
:1002E0000310F70D7708D3048316881500308312A6
:1002F00088190130F700F70DF70DFC30F705770886
:10030000D304831608150030831208190130F70052
:10031000F70DF70DF70DF830F7057708D3045308FC
:10032000F800080083160813881308108312881336
:100330008316881388160816881508158312081462
:100340008316081000008312081783160813000094
:10035000831261217808D200081383160813000065
:100360008312081783160813B529B62900008312D3
:1003700061217808D1000813831608138812081227
:10038000881108118312520EF700F030F705770834
:100390005104F8007808D100D11FD02983169A297A
:1003A000CF08031DD5298813D629881783168813EB
:1003B000000083120810831608100000831208132F
:1003C000831608138312500ED1000F30D105510847
:1003D000D200332150080F39D100D2003321080058
:1003E0004C0BF329F6294030CD00F729CD0101301F
:1003F0004B02CD074D088038CE00CF014E08D0000B
:10040000922108004A08073A0319102A0B3A0319E7
:10041000152A063A03191D2A023A0319232A282A03
:100420000130CB00CC00F0212D2ACF010130D000CB
:1004300092210230CB001F212D2A0130CB00023047
:10044000CC00F0212D2ACF011030D00092212D2A8E
:100450000130CF004A08D000922108000B08BD00EF
:100460008B13831603178C170C14000000008312E3
:100470000313BD1B8B1703170C087F390319822A3E
:100480000313BD0003170D080313BE0003170F0865
:100490000313BF003D08CA0002223E0803178D0067
:1004A00003133F0803178F0003130B08C0008B13BF
:1004B000831603178C170C1400000000831203131B
:1004C000C01B8B1703170C0D0E0D7F390319822AE1
:1004D0000313BD0003170D080313BE0003170F0815
:1004E0000313BF003D08CA0002223E0803178D0017
:1004F00003133F0803178F008D0A03198F0A031394
:100500002E2A0317031308002830B1000C30B20064
:100510000130B3000630B4000813831608138312A9
:100520008813831688138312081083160810881204
:100530000812881108110813881308100F3083124D
:10054000CB001F210130B0003008033C031CB02A4F
:100550000330D20033210530CB001F21B00AA42A7A
:100560000230D20033210530CB001F21B00130080A
:10057000033C031CC72A3130300784008313000872
:10058000B500CF013508D0009221B00AB72A01305A
:10059000CB00CC00F021893003178D0000308F0094
:1005A00003132E220130CB000230CC00F021923018
:1005B00003178D0000308F0003132E226430CB0010
:1005C0001F210130CB00CC00F021993003178D00A2
:1005D00000308F0003132E220130CB000230CC00FC
:1005E000F021A13003178D0000308F0003132E225D
:1005F0006430CB001F210130CB00CC00F021A430AF
:1006000003178D0000308F0003132E220130CB0022
:100610000230CC00F021AD3003178D0000308F0088
:1006200003132E226430CB001F218A110A12D82F07
:100630002B08013A0319232B033A0319372B013AEC
:1006400003194B2B5E2BB53003178D0000308F0044
:1006500003132E220130CB000230CC00F021BD303C
:1006600003178D0000308F0003132E225E2BC43041
:1006700003178D0000308F0003132E220130CB00B2
:100680000230CC00F021CD3003178D0000308F00F8
:1006900003132E225E2BD43003178D0000308F0001
:1006A00003132E220130CB000230CC00F021DB30CE
:1006B00003178D0000308F0003132E22AD0803199D
:1006C0005E2B8A110A12E62F8E30F7003E08F800E2
:1006D0003D08F900FA01F808031D782B7908F800A5
:1006E000F9010830F702F808031D782BF701802B79
:1006F0000310F81B7F2BF90DF80DF703782BF81377
:1007000008004A080319F12BD2004E080319F12BF7
:10071000D2070318922B7F30D202031CF12B03194E
:10072000F12B962B8130D2070318F12B5208F700DA
:10073000F801F901FA014B08D600D6174C08D5008C
:100740004D08D4001830D200D301541CBF2B5108DF
:10075000FA07031CB12BF90A031DB12BF80A031980
:10076000D3175008F907031CB82BF80A0319D3173D
:100770004F08CC00CC174C08F8070318D317D30D3B
:10078000F80CF90CFA0CD60CD50CD40C0310D20BC7
:10079000A42B0130F7070318F12BF81BD62BD60D2D
:1007A000FA0DF90DF80DF7030319F12BD61FE72BFE
:1007B000FA0A031DE72BF90A031DE72BF80A031DAC
:1007C000E72BF80CF90CFA0CF70A0319F12B4B087C
:1007D000D3004F08D306D31FEF2BF817F52BF813D0
:1007E000F52BF701F801F901FA0108008318FB2B3A
:1007F000523084008313F701F801F901FA01D201A4
:10080000D301D401D501510850044F044E040319FB
:10081000392C2030D6000310CA0DCB0DCC0DCD0DD8
:10082000D20DD30DD40DD50D51085502031D222C28
:1008300050085402031D222C4F085302031D222C82
:100840004E085202031C332C4E08D2024F08031CE0
:100850004F0FD3025008031C500FD4025108031C41
:10086000510FD5020314F70DF80DF90DFA0DD60B43
:100870000B2C52088000840A53088000840A540814
:100880008000840A5508800008000408C20041085E
:10089000C4000319642C4008CD003F08CC003E087A
:1008A000CB003D08CA00D101D0012030CF008230FA
:1008B000CE0081237A08C0007908BF007808BE0006
:1008C0007708BD00C40B4B2C4008CD003F08CC007E
:1008D0003E08CB003D08CA004A08B63CCA00FA01EF
:1008E0004B08CE00CB170310CB0CCC0CCD0CFA0C64
:1008F000F90CF80CF70CCA0B732CCE1F8A2CF709D5
:10090000F809F909FA09F70A0319F80A0319F90AA3
:100910000319FA0A7A08C0007908BF007808BE00F7
:100920007708BD00C01FA12CC203C216BD09BE09B5
:10093000BF09C009BD0A0319BE0A0319BF0A03197A
:10094000C00A3B30C9009A30C800CA30C700C6018F
:100950000A30C40041080319C20A83143D308400E0
:1009600083134008CD003F08CC003E08CB003D0873
:10097000CA004908D1004808D0004708CF004608FF
:10098000CE00F6237808F708031DD92C410A44024B
:100990000319D92C42080319DB2C0F39440203191F
:1009A000D32C03180B2DC21B0B2D421BDB2C20302C
:1009B000072D2030C205C21EE92CC2124108031DBA
:1009C000C2037708C2002D30CA0002224208F70095
:1009D000C20141084402031DF72C7708C2002E30E3
:1009E000CA0002224208F7002030C2050030303031
:1009F000C21E072DC2124108031DC2037708C200A0
:100A00002D30CA0002224208F700C2013030F70739
:100A10007708CA00022283104908CD004808CC009C
:100A20004708CB004608CA00D101D001CF010A30E7
:100A3000CE00F6237A08C9007908C8007808C700F4
:100A40007708C600C40BAD2C08000B08BE008B1342
:100A5000831603178C170C14000000008312031375
:100A6000BE1B8B1703185C2D03170C087F3903136B
:100A7000BE0003170D080313BF0003170F0803136D
:100A8000C0003E08CA0002223F0803178D0003136E
:100A9000400803178F0003130B08C1008B13831644
:100AA00003178C170C140000000083120313C11BE2
:100AB0008B17BD0B5C2D7B2D03170C0D0E0D7F3995
:100AC0000313BE0003170D080313BF0003170F081D
:100AD0000313C0003E08CA0002223F0803178D001E
:100AE0000313400803178F008D0A03198F0A0310A0
:100AF0000313BD0B252D08000830F8001F08C73967
:100B000078049F004230F700F70B842D0000EB3093
:100B100003178D0000308F0003132E22AD08031D34
:100B2000E32D1F151F19922D1E08F90083161E08AC
:100B3000F8007908FA001E088312BD007908BE008B
:100B400064237A08B7007908B6007808B5007708FA
:100B5000B4007A08CD007908CC007808CB0077087B
:100B6000CA00D101D0012430CF007930CE008123DA
:100B70007A08B3007908B2007808B1007708B000AD
:100B80000130CB000230CC00F0212030CA0002221C
:100B9000893084003308C0003208BF003108BE002D
:100BA0003008BD000230C1004524F43003178D0029
:100BB00000308F00031004300313BD0025251430CE
:100BC000CB001F218E2D8A110A12E62FCD30BB00DB
:100BD000CC30BA004C30B9007B30B8001030F8008F
:100BE0001F08C73978049F004230F700F70BF62D35
:100BF0000000F73003178D0000308F0003132E2202
:100C0000AD08031D5C2F1F151F19042E1E08F900C7
:100C100083161E08F8007908FA0078088312BD00D0
:100C20007A08BE0064237A08C0007908BF007808FB
:100C3000BE007708BD008E30F7003D08F7023E0881
:100C4000F9003F08F800F917F7080319322E0310CE
:100C5000F908031D2E2EF8080319322EF90CF80C92
:100C6000F70B272EBE1F392EF809F909F80A0319C8
:100C7000F90A7808BC00BE013C08BD0064237A086C
:100C8000CD007908CC007808CB007708CA008B30FB
:100C9000D100C230D0002330CF007930CE00812384
:100CA0007A08B3007908B2007808B1007708B0007C
:100CB0003308C0003208BF003108BE003008BD0054
:100CC0003B08C4003A08C3003908C2003808C10014
:100CD0003D0803192D2FC900410803192D2FC90202
:100CE000031C772E7F30C90703182D2F7D2E8130EE
:100CF000C902031C2D2F03192D2F4908F700F801F5
:100D0000F901FA01C8013E08C700C7173F08C6002D
:100D10004008C5001930C9004408C5020318A02EB8
:100D20000130C6020318A02EC7020318A02EC80265
:100D30000318A02EC80AC70AC60A4408C507D22E3F
:100D40004308C6020318BB2E0130C7020318BB2E8E
:100D5000C8020318BB2EC80AC70A4308C6074408BE
:100D6000C507031CD22EC60A031DD22EC70A031DB7
:100D7000D22EC80AD22E42088038C7020318D12EBC
:100D80000130C8020318D12EC80A42088038C707AC
:100D90004308C607031CAF2EC70A031DAF2EC80A9F
:100DA000AF2E7A14C90BD52EE02E0310C50DC60D3B
:100DB000C70DC80D0310FA0DF90DF80DCA0D8C2ED4
:100DC0004A1CE82E0310F80CF90CFA0CCA0CEB2E96
:100DD000F70303192D2FCA1B142F0310C50DC60DC1
:100DE000C70DC80D4408C5020318002F0130C60204
:100DF0000318002FC7020318002FC802031C232F5B
:100E00004308C60203180B2F0130C70203180B2F2B
:100E1000C802031C232F42088038C7020318142F6E
:100E20000130C802031C232FFA0A031D232FF90ADD
:100E3000031D232FF80A031D232FF70A03192D2F53
:100E4000F80CF90CFA0C3E08C9004208C906C91F83
:100E50002B2FF817312FF813312FF701F801F90173
:100E6000FA017A08B7007908B6007808B500770863
:100E7000B4000130CB000230CC00F0212030CA0099
:100E80000222893084003708C0003608BF003508C8
:100E9000BE003408BD000230C100452401300317F4
:100EA0008D0001308F00031004300313BD00252591
:100EB0001430CB001F21002E8A110A12E62FDF30DA
:100EC000B5000030F8001F08C73978049F00423091
:100ED000F700F70B692F0000E33003178D00003097
:100EE0008F0003132E22AD08031DB92F1F151F19E4
:100EF000772F83161E088312B000BE013008BD0094
:100F000064237A08CD007908CC007808CB007708F4
:100F1000CA00C730D1004B30D0007730CF007D30D1
:100F2000CE0081237A08B4007908B3007808B200B3
:100F30007708B1000130CB000230CC00F021203026
:100F4000CA000222013084003408C0003308BF0008
:100F50003208BE003108BD000130C10045242030F8
:100F6000CA0002223508CA0002221430CB001F2119
:100F7000732F8A110A12E62F03081F39830081306C
:100F800083169900A63098009030831298000130A3
:100F9000AB00AC01AD01AF01AE0183161F149F146D
:100FA0001F159F1107309C00831383120429842A84
:100FB000AD012C08FC3E0318E62F043EE82F182B49
:100FC000E62F7C2DE62FE62DE62F5F2FD82F63002E
:100FD0000A148A140A158207DF2FE12FE32FE52F69
:02400E00723FFF
:00000001FF
;PIC16F877A
;CRC=1921  CREATED="10-nov.-24 19:57"
